:100000004FC0AAC168C067C066C065C064C063C095
:1000100062C061C060C0F3C35EC05DC05CC05BC055
:100020005AC059C058C057C056C055C054C053C01C
:1000300052C051C0040309041003700065006E0033
:10004000670075004D004300140355007300620003
:100050004D00610073007400650072001201100110
:1000600000000008C016DF050001010200010902BE
:100070001B0001010080F4090400000003000000DF
:100080000921010100012216000600FF0901A1015A
:10009000150026FF00750895010900B20201C00095
:1000A00011241FBECFEFD4E0DEBFCDBF11E0A0E032
:1000B000B1E0E4E8FAE002C005900D92A031B1078A
:1000C000D9F711E0A0E1B1E001C01D92AC36B10753
:1000D000E1F79FD3D5C494CFE9E6F0E08081826058
:1000E0008083E89A08951F93CF93DF936091340142
:1000F000635067FDBDC080913101CCE0D0E0C81BEA
:10010000D109C85CDE4F809130018D3209F09EC06C
:10011000683009F0ABC083EC809324018AE58093BA
:100120000001109210018881807639F0CE011FD233
:10013000282F8F3F09F479C07FC09A8110922D013A
:100140008981882321F410922E0122E067C0853036
:1001500019F49093350161C0863009F04FC08B814E
:10016000813041F48CE590E090933301809332012B
:1001700022E140C0823041F48EE690E0909333015A
:10018000809332012BE136C08330F9F48A818823D1
:1001900041F484E390E0909333018093320124E0B2
:1001A00029C0813041F488E390E09093330180933B
:1001B000320120E11FC08230E1F488E490E09093A6
:1001C00033018093320124E115C0813241F480E88B
:1001D00090E0909333018093320129E00BC082328A
:1001E00041F489E890E0909333018093320126E155
:1001F00001C020E080E4809310011EC0883021F40B
:1002000021E087E391E00CC0893019F49093370125
:1002100004C08A3011F421E001C020E08DE291E0B9
:10022000909333018093320107C0888187FD2E812E
:1002300080E88093100106C08F81882319F48E8195
:10024000821708F0822F8093010110C08091100165
:1002500087FF0CC0CE011AD28F3F21F48EE180932C
:10026000000104C0882311F01092010110923401A2
:100270008091000184FF49C0809101018F3F09F402
:1002800044C0182F893008F018E0811B80930101C9
:100290008091240198E8892780932401112341F15A
:1002A00020913201309133018091100186FF0DC001
:1002B000A5E2B1E080E090E0F901E80FF91FE491D8
:1002C000ED9301961817C1F708C0912FD901E5E207
:1002D000F1E08D9181939150E1F71150812F90E0E1
:1002E0001F5F0196820F931F909333018093320119
:1002F00085E291E0612F2CD0612F6C5F6C3019F09A
:100300008FEF809301016093000194E189B18471C2
:1003100031F49150D9F71092350110922F01DF91ED
:10032000CF911F910895A82FB92F80E090E041E070
:1003300050EA609530E009C02D9182279795879506
:1003400010F084279527305EC8F36F5FA8F30895F7
:10035000EADF8D939D930895CF93CFB7CF93DF932B
:10036000C3954C9BE9F74C9B11C04C9B0FC04C9B19
:100370000DC04C9B0BC04C9B09C04C9B07C04C9BB9
:1003800005C04C9B03C04C9B01C081C06F93C091C2
:100390003101DD27C85CDE4F2F9320E400C065E00B
:1003A0004C9B03C02F916F91DECF0F931F934F9300
:1003B00045E55F9355E53F933BE014E009B10471D7
:1003C0002EC06A95C9F03150D8F109B104710113FA
:1003D0000BC008942795299320E4555500F46A959D
:1003E00069F701E069B10BC0102F66E026952993EB
:1003F00020E4555518F3E2CF0FEF69B10000162F36
:10040000455500F0404066E014710030E2F221F002
:10041000000009B1047103C009B10471A9F001130E
:1004200009C00894279568F200C06A95A9F700E012
:1004300069B1E5CF102F66E0269528F20000ECCFD9
:1004400011E01CBB002717C03B503195C31BD040A7
:1004500011E01CBB0881033CF9F00B34E9F020915A
:100460002F011981110F1213EDCF093651F10D3201
:1004700011F0013E39F7009336013F915F914F91A2
:100480001F910F912F916F91CCB3C0FD69CFDF9178
:10049000CF91CFBFCF91189520913601222369F3D8
:1004A00010913401112329F534302AF130933401AD
:1004B00020933001109131013BE0311B3093310129
:1004C0001AC0009134010130A4F40AE53091000112
:1004D00034FD12C000930001C4E2D1E011C0052731
:1004E00010E000C00BB919C0052710E0221F00C0A2
:1004F0001DC04AE502C032ED432FC4E1D0E032E036
:100500001AB114615C9A0BB11AB954E120E869E49C
:1005100020FF05270BB92795179500C000001C3F49
:10052000F0F66695A8F7A1F720FF05270BB92795E8
:10053000179500001C3FC0F629913A9541F70B7EB4
:1005400010913501110F0BB9C651D04011F0109325
:100550002F0111E01CBB00611AB11B7E402F4B7EA6
:1005600055E05A95F1F70BB91AB94BB986CFFC0192
:1005700080818076803409F087C08181843009F4DD
:1005800077C0853030F4823059F0833009F07CC078
:1005900074C0853009F454C0863009F075C02DC090
:1005A000809114018093170180915F01809318015D
:1005B00080916001809319018091610180931A01FB
:1005C0008091620180931B018091630180931C01E3
:1005D0008091640180931D018091650180931E01CB
:1005E0008091660180931F0180915C0180932001BE
:1005F00080915D01809321011CC0809114018230A3
:1006000049F4E7E1F1E086E0819321E0E332F2078B
:10061000D9F70FC020E030E0F901E95EFE4FD901C3
:10062000A25BBE4F8C9180832F5F3F4F2C303105F2
:1006300099F787E191E0909333018093320112C0E2
:1006400080911401882381F0E7E1F1E095E0919336
:1006500021E0E332F207D9F73C978083F09333012E
:10066000E09332018DE0089582E08093140103C08D
:1006700081E08093150180E0089510925B018681EE
:1006800080935A018FEF089580E008959C01809136
:100690005A01861710F460935A0140915A01461B83
:1006A00040935A01D90120E00CC080915B01E82FF2
:1006B000F0E0EE5FFE4F9D9190838F5F80935B0132
:1006C0002F5F261790F3442311F080E0089581E016
:1006D0008093140108958091BC0087FF82C08091AF
:1006E000B900887F80931101883209F43FC08932B4
:1006F00088F4803119F1813138F4882309F46BC012
:10070000883009F06EC01AC0883141F1803209F09A
:1007100068C03EC0803409F44DC0813430F4803369
:10072000B9F1883309F05DC033C08035A9F188354F
:1007300009F44BC0883409F054C02CC080911401D6
:10074000813021F41092130182E005C0823091F5CE
:100750001092120183E08093BB002CC080910201B3
:100760008093BB0081E08093130124C0909113011A
:100770009C3058F4E92FF0E0EE5FFE4F80818093CB
:10078000BB009F5F9093130115C01092140102C02B
:100790001092BC0084EA0FC0809112019091BB00BE
:1007A000E82FF0E0E25BFE4F90838F5F80931201B1
:1007B0008C3020F484EC8093BC00089584E880930E
:1007C000BC008CE080931201089584EA8093BC0001
:1007D00010921401089584ED8093BC0084EA809304
:1007E000BC000895549A20E048E853E104C0A8955D
:1007F000CA010197F1F72150D1F7549808951F923B
:100800000F920FB60F9211240F900FBE0F901F90F2
:1008100018951F932EE088E190E00FB6F894A89504
:10082000809360000FBE2093600056DCDBDF8AE01F
:100830008093B80084E68093BC008EE591E063E786
:10084000FED0809181008A608093810080916F004A
:10085000826080936F0082E19AE790938900809391
:10086000880080E680937C0080917A00876C80937A
:100870007A007894579A209A209A12E48091150170
:10088000882309F4A8958EE591E051D0809160010C
:1008900084FD05C0289A8EE591E078D001C02898A3
:1008A000812F8A95F1F780911401811114DF8091D5
:1008B0001401823011F45F9A01C05F9814DC8091BA
:1008C0007A0086FDDBCF8091160190917900E82FA8
:1008D000F0E0E45AFE4F90838F5F809316018230E0
:1008E00011F41092160180917C00807F80937C002F
:1008F00080917C0090911601892B80937C008091DF
:100900007A00806480937A00B9CF8EBD0DB407FE63
:10091000FDCF8EB508952B9A2D9A2A9892E49A9538
:10092000F1F78EBD0DB407FEFDCF8EB508950F9380
:100930001F938C01FC01818183838281848381E008
:10094000EADF82E4E8DFF801808380E0E4DF80E032
:10095000E2DFF801818380E0DEDFF801828380E05E
:10096000DADFF801858380E0D6DFF801868380E056
:10097000D2DFF801878380E0CEDFF80180872A9AF2
:1009800082E48A95F1F71F910F910895FF920F93DA
:100990001F938C0181E0BFDF83E4BDDF80E0BBDF1C
:1009A00081E0B9DF80E0B7DF2A9A82E4F82E8F2D4C
:1009B0008A95F1F781E0AFDF84E4ADDF80E0ABDF63
:1009C00081E0A9DF83E0A7DF80E0A5DF80E0A3DF8F
:1009D00080E0A1DF80E09FDF2A9A8F2D8A95F1F7D2
:1009E00081E099DF83E497DFF801808380E093DF83
:1009F00080E091DF8AE58FDF8AE58DDF8AE58BDF96
:100A00008AE589DF8AE587DF2A9AFA94F1F7C80137
:100A10008EDFF80180811F910F91FF9008950F9351
:100A20001F938C0184DFF80185818187868182870D
:100A300087818387808584871F910F9108951F93F5
:100A4000CF93DF93EC01162F249884B18C6284B984
:100A500085B1837C85B98CB58F678CBD8CB58CBD19
:100A6000CE0165DF8881811729F0CE018FDF90E00C
:100A7000811709F491E0892FDF91CF911F9108959B
:040A8000F894FFCF18
:100A84005AFF484848484848484848484848000C9D
:00000001FF
