:100000004FC0AAC168C067C066C065C064C063C095
:1000100062C061C060C0ADC35EC05DC05CC05BC09B
:100020005AC059C058C057C056C055C054C053C01C
:1000300052C051C0040309041003700065006E0033
:10004000670075004D004300140355007300620003
:100050004D00610073007400650072001201100110
:1000600000000008C016DF050001010200010902BE
:100070001B0001010080F4090400000003000000DF
:100080000921010100012216000600FF0901A1015A
:10009000150026FF00750895010900B20201C00095
:1000A00011241FBECFEFD4E0DEBFCDBF11E0A0E032
:1000B000B1E0EAE0F8E002C005900D92A231B1078C
:1000C000D9F711E0A2E1B1E001C01D92A735B10757
:1000D000E1F75BD398C394CFE9E6F0E080818260DA
:1000E0008083E89A08951F93CF93DF936091360140
:1000F000635067FDBDC080913301CCE0D0E0C81BE8
:10010000D109C65CDE4F809132018D3209F09EC06C
:10011000683009F0ABC083EC809326018AE58093B8
:100120000001109212018881807639F0CE011FD231
:10013000282F8F3F09F479C07FC09A8110922F0138
:100140008981882321F41092300122E067C0853034
:1001500019F49093370161C0863009F04FC08B814C
:10016000813041F48CE590E0909335018093340127
:1001700022E140C0823041F48EE690E09093350158
:10018000809334012BE136C08330F9F48A818823CF
:1001900041F484E390E0909335018093340124E0AE
:1001A00029C0813041F488E390E090933501809339
:1001B000340120E11FC08230E1F488E490E09093A4
:1001C00035018093340124E115C0813241F480E887
:1001D00090E0909335018093340129E00BC0823286
:1001E00041F489E890E0909335018093340126E151
:1001F00001C020E080E4809312011EC0883021F409
:1002000021E089E391E00CC0893019F49093390121
:1002100004C08A3011F421E001C020E08FE291E0B7
:10022000909335018093340107C0888187FD2E812A
:1002300080E88093120106C08F81882319F48E8193
:10024000821708F0822F8093010110C08091120163
:1002500087FF0CC0CE01C5D18F3F21F48EE1809382
:10026000000104C0882311F01092010110923601A0
:100270008091000184FF49C0809101018F3F09F402
:1002800044C0182F893008F018E0811B80930101C9
:100290008091260198E8892780932601112341F156
:1002A00020913401309135018091120186FF0DC0FB
:1002B000A7E2B1E080E090E0F901E80FF91FE491D6
:1002C000ED9301961817C1F708C0912FD901E7E205
:1002D000F1E08D9181939150E1F71150812F90E0E1
:1002E0001F5F0196820F931F909335018093340115
:1002F00087E291E0612F2CD0612F6C5F6C3019F098
:100300008FEF809301016093000194E189B18471C2
:1003100031F49150D9F71092370110923101DF91E9
:10032000CF911F910895A82FB92F80E090E041E070
:1003300050EA609530E009C02D9182279795879506
:1003400010F084279527305EC8F36F5FA8F30895F7
:10035000EADF8D939D930895CF93CFB7CF93DF932B
:10036000C3954C9BE9F74C9B11C04C9B0FC04C9B19
:100370000DC04C9B0BC04C9B09C04C9B07C04C9BB9
:1003800005C04C9B03C04C9B01C081C06F93C091C2
:100390003301DD27C65CDE4F2F9320E400C065E00B
:1003A0004C9B03C02F916F91DECF0F931F934F9300
:1003B00045E55F9355E53F933BE014E009B10471D7
:1003C0002EC06A95C9F03150D8F109B104710113FA
:1003D0000BC008942795299320E4555500F46A959D
:1003E00069F701E069B10BC0102F66E026952993EB
:1003F00020E4555518F3E2CF0FEF69B10000162F36
:10040000455500F0404066E014710030E2F221F002
:10041000000009B1047103C009B10471A9F001130E
:1004200009C00894279568F200C06A95A9F700E012
:1004300069B1E5CF102F66E0269528F20000ECCFD9
:1004400011E01CBB002717C03B503195C31BD040A7
:1004500011E01CBB0881033CF9F00B34E9F020915A
:1004600031011981110F1213EDCF093651F10D32FF
:1004700011F0013E39F7009338013F915F914F91A0
:100480001F910F912F916F91CCB3C0FD69CFDF9178
:10049000CF91CFBFCF91189520913801222369F3D6
:1004A00010913601112329F534302AF130933601A9
:1004B00020933201109133013BE0311B3093330123
:1004C0001AC0009136010130A4F40AE53091000110
:1004D00034FD12C000930001C6E2D1E011C005272F
:1004E00010E000C00BB919C0052710E0221F00C0A2
:1004F0001DC04AE502C032ED432FC4E1D0E032E036
:100500001AB114615C9A0BB11AB954E120E869E49C
:1005100020FF05270BB92795179500C000001C3F49
:10052000F0F66695A8F7A1F720FF05270BB92795E8
:10053000179500001C3FC0F629913A9541F70B7EB4
:1005400010913701110F0BB9C651D04011F0109323
:10055000310111E01CBB00611AB11B7E402F4B7EA4
:1005600055E05A95F1F70BB91AB94BB986CFFC0192
:1005700080818076803499F58181833049F184309F
:1005800011F1823061F580915501809319018091BC
:10059000530180931A018091540180931B011092A2
:1005A0001C0110921D018091130180931E01809106
:1005B000020180931F0189E191E0909335018093BE
:1005C00034018DE0089581E08093170180E0089563
:1005D000109252018681809351018FEF089580E03F
:1005E00008959C0180915101861710F46093510188
:1005F00040915101461B40935101D90120E00CC0AC
:1006000080915201E82FF0E0EE5FFE4F9D919083C4
:100610008F5F809352012F5F261790F3442311F0D0
:1006200080E0089581E080930E0108958091BC00E0
:1006300087FF7DC08BB180588BB98091B900887FCE
:10064000809313018832E9F1893288F4803111F105
:10065000813138F4882309F464C0883009F067C018
:1006600019C0883131F1803209F061C03CC080345A
:10067000F1F0813430F48033B1F1883309F057C0A0
:1006800032C0803599F1883509F445C0883409F0C5
:100690004EC043C080911601882321F410921501A9
:1006A00082E003C01092140183E08093BB0084ECCD
:1006B00035C0809102018093BB0081E080931501D9
:1006C000F6CF909115019C3058F4E92FF0E0EE5FE1
:1006D000FE4F80818093BB009F5F90931501E7CF11
:1006E00010920E011AC01092BC0017C08091140124
:1006F0009091BB00E82FF0E0E05BFE4F90838F5FAE
:1007000080931401833098F284E88093BC0083E0E6
:100710008093140108951092160184EA8093BC001E
:10072000089584ED8093BC0084EA8093BC00089512
:10073000813049F0813028F0823041F0833059F423
:1007400008C05F9801C05F9A289808955F98289A1A
:1007500008955F9A289A0895549A20E048E853E152
:1007600004C0A895CA010197F1F72150D1F7549818
:1007700008951F920F920FB60F9211245F98289838
:100780000F900FBE0F901F9018952EE088E190E01B
:100790000FB6F894A895809360000FBE2093600078
:1007A0009BDCDADF8AE08093B80084E68093BC00AB
:1007B000809181008A608093810080916F008260C7
:1007C00080936F0082E19AE790938900809388007C
:1007D0007894579A209A81E0ABDF809117018823A3
:1007E00009F4A89580910E01811120DF7CDC4E9BDD
:1007F000F4CF1092810010926F00E0910F01F09100
:0A08000010010995EACFF894FFCF2C
:10080A005AFF484848484848484848484848010024
:02081A000C00D0
:00000001FF
