:100000004FC0AEC168C067C066C065C064C063C091
:1000100062C061C060C075C45EC05DC05CC05BC0D2
:100020005AC059C058C057C056C055C054C053C01C
:1000300052C051C0040309041003700065006E0033
:10004000670075004D004300140355007300620003
:100050004D00610073007400650072001201100110
:1000600000000008C016DF050001010200010902BE
:100070001B0001010080F4090400000003000000DF
:100080000921010100012216000600FF0901A1015A
:10009000150026FF00750895010900B20201C00095
:1000A00011241FBECFEFD4E0DEBFCDBF11E0A0E032
:1000B000B1E0E2EAFAE002C005900D92A031B1078A
:1000C000D9F711E0A0E1B1E001C01D92AC36B10753
:1000D000E1F79CD3E4C494CF1F93CF93DF93609157
:1000E0003401635067FDBEC080913101CCE0D0E0A7
:1000F000C81BD109C85CDE4F809130018D3209F0F8
:100100009FC0683009F0ACC083EC809324018AE57D
:1001100080930001109210018881807631F0CE0129
:100120002AD28F3F09F47BC081C09A8110922D01A1
:100130008981882331F410922E012DE231E082E092
:1001400069C0853019F4909335015AC0863009F0A2
:100150004EC08B81813041F48CE590E09093330167
:100160008093320182E13FC0823041F48EE690E01C
:1001700090933301809332018BE135C08330F1F4E9
:10018000992341F484E390E090933301809332010A
:1001900084E029C0913041F488E390E090933301EA
:1001A0008093320180E11FC09230E1F488E490E056
:1001B000909333018093320184E115C0813241F480
:1001C00080E890E0909333018093320189E00BC086
:1001D000823241F489E890E09093330180933201B8
:1001E00086E101C080E090E4909310011FC0883048
:1001F00059F0893019F49093370102C08A3039F0F0
:100200002DE231E080E006C027E331E002C02DE2BC
:1002100031E081E0309333012093320107C09881AF
:1002200097FD8E8190E89093100107C09F819923DC
:1002300021F49E81981708F4892F8093010110C042
:100240008091100187FF0CC0CE0126D28F3F21F490
:100250008EE18093000104C0882311F01092010107
:10026000109234018091000184FF4CC08091010103
:100270008F3F09F447C0182F893008F018E0811B20
:10028000809301018091240198E8892780932401BB
:10029000112361F18091320190913301309110016D
:1002A000212F215036FF0EC030E0A9014A5D5E4F7C
:1002B000FC01A5E2B1E064916D933196A417B507F6
:1002C000D1F70CC0DC0130E0A9014A5D5E4FE5E2E8
:1002D000F1E06D916193E417F507D9F72F5F3F4F78
:1002E000280F391F309333012093320185E291E0CA
:1002F000612F32D01C5F1C3019F08FEF8093010109
:100300001093000184E199B1947131F48150D9F7CF
:100310001092350110922F01DF91CF911F91089516
:10032000E9E6F0E0808182608083E89A0895A82F52
:10033000B92F80E090E041E050EA609530E009C0DC
:100340002D9182279795879510F084279527305E09
:10035000C8F36F5FA8F30895EADF8D939D93089526
:10036000CF93CFB7CF93DF93C3954C9BE9F74C9BCB
:1003700011C04C9B0FC04C9B0DC04C9B0BC04C9BA9
:1003800009C04C9B07C04C9B05C04C9B03C04C9BB9
:1003900001C081C06F93C0913101DD27C85CDE4F81
:1003A0002F9320E400C065E04C9B03C02F916F9118
:1003B000DECF0F931F934F9345E55F9355E53F9332
:1003C0003BE014E009B104712EC06A95C9F03150C8
:1003D000D8F109B1047101130BC008942795299332
:1003E00020E4555500F46A9569F701E069B10BC046
:1003F000102F66E02695299320E4555518F3E2CF97
:100400000FEF69B10000162F455500F0404066E03F
:1004100014710030E2F221F0000009B1047103C050
:1004200009B10471A9F0011309C00894279568F275
:1004300000C06A95A9F700E069B1E5CF102F66E02A
:10044000269528F20000ECCF11E01CBB002717C056
:100450003B503195C31BD04011E01CBB0881033CCD
:10046000F9F00B34E9F020912F011981110F1213CB
:10047000EDCF093651F10D3211F0013E39F70093FD
:1004800036013F915F914F911F910F912F916F9185
:10049000CCB3C0FD69CFDF91CF91CFBFCF9118957D
:1004A00020913601222369F310913401112329F59B
:1004B00034302AF13093340120933001109131010E
:1004C0003BE0311B309331011AC0009134010130FF
:1004D000A4F40AE53091000134FD12C0009300013C
:1004E000C4E2D1E011C0052710E000C00BB919C06B
:1004F000052710E0221F00C01DC04AE502C032EDF2
:10050000432FC4E1D0E032E01AB114615C9A0BB120
:100510001AB954E120E869E420FF05270BB92795B3
:10052000179500C000001C3FF0F66695A8F7A1F7EC
:1005300020FF05270BB92795179500001C3FC0F633
:1005400029913A9541F70B7E10913501110F0BB9A6
:10055000C651D04011F010932F0111E01CBB006177
:100560001AB11B7E402F4B7E55E05A95F1F70BB91F
:100570001AB94BB986CFFC0180818076803409F0AE
:1005800087C08181843009F478C0853030F48230AE
:1005900059F0833009F07EC074C0853009F454C02E
:1005A000863009F077C038C080911401809317011C
:1005B00080915F01809318018091600180931901FF
:1005C00080915C0180931A0180915D0180931B01F1
:1005D0008EE591E050D2882379F080916301809379
:1005E0001C018091640180931D01809165018093BD
:1005F0001E018091660107C080E880931C018093F2
:100600001D0180931E0180931F0187E191E090936B
:100610003301809332012BC080911401823049F460
:10062000E7E1F1E086E0819321E0E332F207D9F7D8
:10063000ECCFEEE4F1E0A7E1B1E081918D9381E0B0
:10064000EA35F807D1F7E1CF80911401882389F0CA
:10065000E7E1F1E095E0919321E0E332F207D9F789
:100660003C9780931701F0933301E09332018DE0C2
:10067000089582E0809314010BC081E080931501FE
:1006800007C010925B01868180935A018FEF089515
:1006900080E0089580E0089520915A01261710F413
:1006A00060935A0120915A01261B20935A01DC01C4
:1006B00080E00CC090915B013D91E92FF0E0EE5F8E
:1006C000FE4F30839F5F90935B018F5F861790F39F
:1006D000222321F481E080931401089580E008959D
:1006E0008091BC0087FF83C08091B900887F809390
:1006F0001101883209F440C0893288F4803119F13F
:10070000813138F4882309F46CC0883009F06FC057
:100710001AC0883159F1803209F069C03FC0803475
:1007200009F44EC0813430F48033C1F1883309F0CC
:100730005EC034C08035B1F1883509F44CC08834CE
:1007400009F055C02DC080911401813029F4109218
:10075000130182E08093BB0080911401823081F507
:100760001092120183E08093BB002AC080910201A5
:100770008093BB0081E00CC0809113018C3058F451
:10078000E82FF0E0EE5FFE4F90819093BB008F5F0B
:100790008093130115C01092140102C01092BC0086
:1007A00084EA0FC0809112019091BB00E82FF0E025
:1007B000E25BFE4F90838F5F809312018C3020F4B8
:1007C00084EC8093BC00089584E88093BC008CE0A6
:1007D00080931201089584EA8093BC001092140162
:1007E000089584ED8093BC0084EA8093BC00089552
:1007F000549A80E007C0A895E7E8F3E13197F1F754
:1008000000C000008150B9F7549808952EE088E1A7
:1008100090E00FB6F894A895809360000FBE2093E7
:1008200060007EDDE5DF8AE08093B80084E6809397
:10083000BC008EE591E063E7FBD0809181008A6087
:100840008093810080916F00826080936F0082E1CD
:100850009AE7909389008093880080E280937C00DF
:1008600080917A00876C80937A007894579A209AC6
:10087000209A80911501882309F4A8958EE591E0CE
:1008800059D08091600184FD05C0289A8EE591E0E1
:1008900079D001C0289882E48A95F1F700C0809150
:1008A000140181111DDF80911401823011F45F9ACF
:1008B00001C05F9811DC80917A0086FDDACF8091CB
:1008C000160190917900E82FF0E0E45AFE4F9083F2
:1008D0008F5F80931601823011F41092160180917F
:1008E0007C00807F80937C0080917C009091160139
:1008F000892B80937C0080917A00806480937A00B9
:10090000B8CF1F920F920FB60F9211240F900FBE07
:100910000F901F9018958EBD0DB407FEFDCF8EB5BC
:1009200008952B9A2D9A2A9892E49A95F1F700C08F
:10093000F2DF0895CF93DF93EC0189818B838A8165
:100940008C8381E0EEDF82E4ECDF888380E0E9DF06
:1009500080E0E7DF898380E0E4DF8A8380E0E1DF15
:100960008D8380E0DEDF8E8380E0DBDF8F8380E0BD
:10097000D8DF88872A9A82E48A95F1F700C0DF9150
:10098000CF910895CF93DF93EC0181E0CADF83E438
:10099000C8DF80E0C6DF81E0C4DF80E0C2DF2A9AE2
:1009A00082E48A95F1F700C081E0BBDF84E4B9DF1F
:1009B00080E0B7DF81E0B5DF83E0B3DF80E0B1DF67
:1009C00080E0AFDF80E0ADDF80E0ABDF2A9A82E439
:1009D0008A95F1F700C081E0A4DF83E4A2DF888379
:1009E00080E09FDF80E09DDF8AE59BDF8AE599DF7D
:1009F0008AE597DF8AE595DF8AE593DF2A9A82E424
:100A00008A95F1F700C0CE0195DF8881DF91CF9103
:100A10000895CF93DF93EC018DDF8D8189878E81DF
:100A20008A878F818B8788858C87DF91CF91089506
:100A30001F93CF93DF93EC01162F249884B18C621F
:100A400084B985B1837C85B98CB58F678CBD8CB535
:100A50008CBDCE016FDF8881811739F0CE0192DF26
:100A600091E0811719F090E001C091E0892FDF91AA
:100A7000CF911F910895FC0187818F3F61F480859C
:100A80008F3F49F485818F3F41F481E096819F3FFC
:100A900029F480E0089581E0089581E00895F894B4
:020AA000FFCF86
:100AA2005AFF484848484848484848484848000C7F
:00000001FF
